:020000040000FA
:0400000003EF00F01A
:020004000000FA
:0A000600956A948094829494600E31
:10001000226E836E3CD83BD83AD882B022D882A2D6
:10002000F9D7220457EC00F0226E836E3DEC00F00D
:100030002252F7E1C80E036E30D82FD82ED82DD813
:100040002CD8032EF9D78284FA0E036E26D8032EFD
:10005000FDD7829482B003EF00F082B203EF00F08C
:10006000E9D7100E22240700226E836E12003C0E88
:10007000006E03D8002EFDD71200C80E036E0DD8F7
:100080000CD80BD80AD809D8032EF9D71200640E61
:10009000036E03D8032EFDD71200640E026E00001B
:1000A0000000000000000000022EF9D71200206EB0
:1000B0000F0B216E090E2164D8A20CD0D8929F0E8E
:1000C0002064D8A003D02050D8901200600E205C8D
:0C00D000D8801200060E205ED882F1D706
:020000040030CA
:0100000000FF
:0100010000FE
:010002001FDE
:010003001EDE
:010005008377
:010006008178
:010008000FE8
:01000900C036
:01000A000FE6
:01000B00E014
:01000C000FE4
:01000D0040B2
:00000001FF
