:0400000007EF00F016
:10000800148209ED00F07EEF00F00600FACF01F04F
:10001800FBCF02F0E9CF03F0EACF04F0E1CF05F01F
:10002800E2CF06F0D9CF07F0DACF08F0F3CF09F026
:10003800F4CF0AF0F6CF0BF0F7CF0CF0F8CF0DF0B5
:10004800F5CF0EF0F2A203D0F292137008D0F0A010
:1000580006D0F090000E126E000E116E13900EC0B6
:10006800F5FF0DC0F8FF0CC0F7FF0BC0F6FF0AC084
:10007800F4FF09C0F3FF08C0DAFF07C0D9FF06C0C4
:10008800E2FF05C0E1FF04C0EAFF03C0E9FF02C0C8
:10009800FBFF01C0FAFF1492110093809382000EB7
:1000A800956EF288F086F28EF28C000E126E000EBB
:1000B800116E000E836E139013B071EC00F086EC95
:1000C80000F0060E106E130E0F6EAE0EE82EFED761
:1000D8000F2EFCD7102EFAD7EFD7122A090E12646A
:1000E8001200000E126E112A090E11641200000E81
:1000F800116E1200136A126A116A149014920001A8
:0E01080051EF00F01138F00B1210836E120050
:020000040020DA
:08000000FFFFFFFFFFFFFFFF00
:020000040030CA
:0E00000000001F1EFF8181FF0FC00FE00F40A8
:00000001FF
