:0400000007EF00F016
:10000800168209ED00F0D9EF00F00600FACF01F0F2
:10001800FBCF02F0E9CF03F0EACF04F0E1CF05F01F
:10002800E2CF06F0D9CF07F0DACF08F0F3CF09F026
:10003800F4CF0AF0F6CF0BF0F7CF0CF0F8CF0DF0B5
:10004800F5CF0EF0F2B213B008D0F292152A090ECD
:1000580015641FD0000E156E1CD0F0B013B007D079
:10006800F090F29EF29CF298F096137212D0F2B2CF
:1000780013A007D0F29209D0000E146E060E156E6A
:1000880007D0F0B013A005D0F09013908290F4D769
:1000980013920EC0F5FF0DC0F8FF0CC0F7FF0BC0A0
:1000A800F6FF0AC0F4FF09C0F3FF08C0DAFF07C073
:1000B800D9FF06C0E2FF05C0E1FF04C0EAFF03C0A4
:1000C800E9FF02C0FBFF01C0FAFF169211009380FE
:1000D80093829490000E956EF288F086F28EF28CE0
:1000E800020E146E000E156E000E836E139213A28C
:1000F8001AD0990E126E310E116EA20EE82EFED78E
:10010800112EFCD7122EFAD700D0990E126E310E8E
:10011800116EA20EE82EFED7112EFCD7122EFAD79A
:1001280000D0C3EC00F0E0EC00F0E1D7F28EF28CE6
:10013800F288F0861380139213A01200828013A015
:100148001200020E106E450E0F6EAA0EE82EFED794
:100158000F2EFCD7102EFAD713A01200829013A0EE
:100168001200060E106E130E0F6EAE0EE82EFED79E
:100178000F2EFCD7102EFAD713A01200DDD715507A
:10018800D8A403D01450D8B40DD014061428D8A479
:100198001200090E146E15061528D8A41200000EB8
:1001A800156E12009AEC00F01200136A156A169088
:1001B800169200016BEF00F01538F00B1410836EE7
:0201C800120023
:020000040020DA
:08000000FFFFFFFFFFFFFFFF00
:020000040030CA
:0E00000000001F1EFF8181FF0FC00FE00F40A8
:00000001FF
