:020000040000FA
:0400000003EF00F01A
:020004000000FA
:0A000600956A948094823C0E206EEF
:10001000836E82B015EC00F082A2FBD7204C0AD090
:10002000206E836E31EC00F0F9D70A0E2024206E8A
:10003000836E1200C80E036E97D896D895D894D8C0
:1000400093D8032EF9D78284FA0E036E8DD8032E2F
:10005000FDD7829482B003EF00F082B203EF00F08C
:10006000E9D7AAEC00F0AAEC00F0AAEC00F0AAECA8
:1000700000F0AAEC00F0AAEC00F0AAEC00F0AAEC68
:1000800000F0AAEC00F0AAEC00F0AAEC00F0AAEC58
:1000900000F0AAEC00F0AAEC00F0AAEC00F0AAEC48
:1000A00000F0AAEC00F0AAEC00F0AAEC00F0AAEC38
:1000B00000F0AAEC00F0AAEC00F0AAEC00F0AAEC28
:1000C00000F0AAEC00F0AAEC00F0AAEC00F0AAEC18
:1000D00000F0AAEC00F0AAEC00F0AAEC00F0AAEC08
:1000E00000F0AAEC00F0AAEC00F0AAEC00F0AAECF8
:1000F00000F0AAEC00F0AAEC00F0AAEC00F0AAECE8
:1001000000F0AAEC00F0AAEC00F0AAEC00F0AAECD7
:1001100000F0AAEC00F0AAEC00F0AAEC00F0AAECC7
:1001200000F0AAEC00F0AAEC00F0AAEC00F0AAECB7
:1001300000F0AAEC00F0AAEC00F0AAEC00F0AAECA7
:1001400000F0AAEC00F0AAEC00F0AAEC00F0AAEC97
:1001500000F01200C80E036E07D806D805D804D8E0
:1001600003D8032EF9D71200640E026E00000000BF
:10017000000000000000022EF9D71200000000006D
:0201800042D764
:020000040030CA
:0100000000FF
:0100010000FE
:010002001FDE
:010003001EDE
:010005008377
:010006008178
:010008000FE8
:01000900C036
:01000A000FE6
:01000B00E014
:01000C000FE4
:01000D0040B2
:00000001FF
